:020000040800F2
:100000000028002095110008251100082B11000878
:1000100031110008371100083D11000800000000F0
:100020000000000000000000000000004311000874
:100030004F110008000000005B1100086711000864
:10004000DD110008DD110008DD110008DD110008D8
:10005000DD110008DD110008DD110008DD110008C8
:10006000DD110008DD110008DD110008DD110008B8
:10007000DD110008DD110008DD110008DD110008A8
:10008000DD110008DD110008DD110008DD11000898
:10009000DD110008DD110008DD110008DD11000888
:1000A000DD110008DD110008DD110008DD11000878
:1000B00075110008DD11000800000000DD110008C6
:1000C000DD1100080000000000000000DD11000844
:1000D00000000000DD110008DD1100080000000034
:1000E000DD110008DD110008DD110008000000002E
:1000F0000000000000000000000000000000000000
:0C01000000000000000000005FF808F1A3
:10010C0010B5054C237833B9044B13B10448AFF345
:10011C0000800123237010BD3C0000200000000073
:10012C00F427000808B5034B1BB103490348AFF390
:10013C00008008BD0000000040000020F4270008EB
:10014C0080B489B000AF254B254A92E8030083E8C0
:10015C000300224B234A183392E8030083E8030080
:10016C001E4B214A303392E8030083E8030000233E
:10017C00FB832AE0FA8B194913465B001344DB001E
:10018C000B44083301221A70FA8B144913465B0096
:10019C001344DB000B44103300221A60FA8B0F4916
:1001AC0013465B001344DB000B44153301221A7019
:1001BC00FA8B0A4913465B001344DB000B441433DF
:1001CC0001221A70FB8B0133FB83FB8B022BD1D9E1
:1001DC0000BF00BF2437BD4680BC70479C00002088
:1001EC000C280008142800081C28000880B582B0D0
:1001FC0000AF00237B60EDE07B4A7B681344033344
:10020C001978794A7B68134406330A461A70764A81
:10021C007B6813441978744A7B68134403330A4689
:10022C001A7072497A6813465B001344DB000B4466
:10023C0018686E497A6813465B001344DB000B4464
:10024C0004331B88194601F0AFFA03461946664A77
:10025C007B6813440A461A70634A7B6813441A7805
:10026C0061497B680B4403331B789A4240F0AF80A2
:10027C005D4A7B6813441A785B497B680B440633F0
:10028C001B789A4240F0A38058497A6813465B0069
:10029C001344DB000B4408331A7853497B680B4436
:1002AC001B789A424CD0504A7B68134418784F49BB
:1002BC007A6813465B001344DB000B440833024698
:1002CC001A704A497A6813465B001344DB000B44EE
:1002DC0008331B78002B13D144497A6813465B0012
:1002EC001344DB000B44103332221A603F497A6806
:1002FC0013465B001344DB000B44143300221A70CA
:10030C003A497A6813465B001344DB000B4408330C
:10031C001B78012B5BD135497A6813465B0013447B
:10032C00DB000B44103300221A6030497A68134604
:10033C005B001344DB000B44153301221A7046E0BA
:10034C002A497A6813465B001344DB000B440833DC
:10035C001B78002B3BD125497A6813465B0013446C
:10036C00DB000B4410331B68591E20487A68134677
:10037C005B001344DB000344103319601B497A689B
:10038C0013465B001344DB000B4410331B68002B3B
:10039C001DDC16497A6813465B001344DB000B44E2
:1003AC00153300221A7011497A6813465B00134406
:1003BC00DB000B44143300221A700C497A68134684
:1003CC005B001344DB000B44103303221A607B6880
:1003DC0001337B607B68022B7FF70EAF00BF00BF41
:1003EC000837BD4680BD00BF580000209C0000208F
:1003FC0080B483B000AF0346FB80FB88022B01D98D
:10040C0000230DE0FA88094913465B001344DB0016
:10041C000B4415331B78002B0CBF01230023DBB2DC
:10042C0018460C37BD4680BC704700BF9C000020AE
:10043C0080B483B000AF0346FB80FB88022B01D94C
:10044C0000230DE0FA88094913465B001344DB00D6
:10045C000B4414331B78002B0CBF01230023DBB29D
:10046C0018460C37BD4680BC704700BF9C0000206E
:10047C0080B483B000AF0346FB80FA88064913466C
:10048C005B001344DB000B44143301221A7000BFD1
:10049C000C37BD4680BC70479C00002090B583B0E3
:1004AC0000AF0023FB8022E00023BB8019E0FA8818
:1004BC00B988134813465B0013440B4450F83300BF
:1004CC00FA88B9880E4C13465B0013440B44DB00CE
:1004DC0023449B880122194601F07DF9BB88013326
:1004EC00BB80BB88022BE2D9FB880133FB80FB88E5
:1004FC00012BD9D900BF00BF0C37BD4690BD00BF42
:10050C00E400002090B583B000AF0023FB8022E014
:10051C000023BB8019E0FA88B988134813465B00A6
:10052C0013440B4450F83300FA88B9880E4C134628
:10053C005B0013440B44DB0023449B8800221946C8
:10054C0001F049F9BB880133BB80BB88022BE2D98F
:10055C00FB880133FB80FB88012BD9D900BF00BF7E
:10056C000C37BD4690BD00BFE400002080B58CB0B8
:10057C0000AF174B174A92E8030083E80300144BB3
:10058C00154A103392E8030083E80300104B134A1A
:10059C00083392E8030083E803000D4B104A18332C
:1005AC0092E8030083E80300094B0E4A283392E8D3
:1005BC00030083E80300064B0B4A203392E8030048
:1005CC0083E80300FFF76AFF00BF3037BD4680BDEC
:1005DC00E4000020242800082C28000834280008F7
:1005EC003C280008442800084C28000890B585B029
:1005FC0000AF03460A46FB711346BB710023FB8117
:10060C0036E0BB799BB2FA899A4217D1FA79F9890B
:10061C001B4813465B0013440B4450F83300FA7923
:10062C00F989174C13465B0013440B44DB0023443D
:10063C009B880022194601F0CEF816E0FA79F98968
:10064C000F4813465B0013440B4450F83300FA79FF
:10065C00F9890B4C13465B0013440B44DB00234419
:10066C009B880122194601F0B6F8FB890133FB8106
:10067C00FB89022BC5D900BF00BF1437BD4690BD06
:10068C00E400002080B500AF084B1B78012B05D18E
:10069C00FFF704FF054B00221A7004E0FFF732FF4E
:1006AC00024B01221A7000BF80BD00BF0000002069
:1006BC0090B58BB000AF334B334A92E8030083E81C
:1006CC000300304B314A0C3392E8030083E80300FB
:1006DC002C4B2F4A183392E8030083E80300294B74
:1006EC002C4A243392E8030083E803000023FB84A4
:1006FC003FE00023BB8436E0F98CBB8C21481A46C2
:10070C0052001A4493001A460B465B000B44DB0064
:10071C00134403441868F98CBB8C1A4C1A465200CB
:10072C001A4493001A460B465B000B44DB0013443F
:10073C00234404331B880122194601F04CF8F98C30
:10074C00BB8C10481A4652001A4493001A460B46AA
:10075C005B000B44DB0013440344083300221A6093
:10076C00BB8C0133BB84BB8C012BC5D9FB8C0133F7
:10077C00FB84FB8C012BBCD900BF00BF2C37BD46C2
:10078C0090BD00BF14010020542800085C2800080C
:10079C00642800086C28000880B483B000AF0346BE
:1007AC000A46FB711346BB80BB88144AA2FB032389
:1007BC00DB089BB2FA791846114913465B001344C7
:1007CC00DB000B4408331860BA880C4BA3FB0213F4
:1007DC00D9080B469B000B445B00D31A9BB2FA79E9
:1007EC001846074913465B001344DB000B441433D3
:1007FC00186000BF0C37BD4680BC7047CDCCCCCC4C
:10080C001401002090B583B000AF514B1B6A002B34
:10081C0040F09A804F4BDB6803F47F404E4B1968D5
:10082C004E4B1B684E4C1A4652001A4493001A4603
:10083C000B465B000B44DB001344234408331B685A
:10084C00484A52F82330434A0343D3600023FB80C9
:10085C005CE00023BB8053E0FA883F4B1B689A4254
:10086C0028D1BA883D4B1B689A4223D1F988BB88A2
:10087C003B481A4652001A4493001A460B465B003A
:10088C000B44DB00134403441868F988BB88344CD0
:10089C001A4652001A4493001A460B465B000B444E
:1008AC00DB001344234404331B880022194600F058
:1008BC0092FF22E0F988BB8829481A4652001A4454
:1008CC0093001A460B465B000B44DB0013440344B5
:1008DC001868F988BB88224C1A4652001A449300B7
:1008EC001A460B465B000B44DB00134423440433D1
:1008FC001B880122194600F06EFFBB880133BB80B8
:10090C00BB88012BA8D9FB880133FB80FB88012B0A
:10091C009FD9124B1B68012B09D10F4B1B6801335C
:10092C00002B03F00103B8BF5B420B4A13600B4B67
:10093C001B680133002B03F00103B8BF5B42074A6D
:10094C001360034B01221A6200BF0C37BD4690BDE9
:10095C006C000020000C01406400002068000020A6
:10096C00140100200400002080B483B000AF1B4BA6
:10097C0001221A60194B1922DA60184B05229A6170
:10098C00164B64225A620023FB801DE0F988FA881A
:10099C0012480B465B000B449B00034419680F483C
:1009AC0013465B0013449B00034404331960FA881C
:1009BC000A4913465B0013449B000B440833002286
:1009CC001A60FB880133FB80FB88032BDED900BF48
:1009DC0000BF0C37BD4680BC704700BF6C000020C8
:1009EC0080B485B000AF78600023FB813AE0FA89CF
:1009FC00214913465B0013449B000B4404331B68D2
:100A0C00591E1D4813465B0013449B0003440433DA
:100A1C001960FA89184913465B0013449B000B4478
:100A2C0004331B68002B1ADCFA89134913465B004C
:100A3C0013449B000B44083300221A60F989FA898D
:100A4C000D480B465B000B449B00034419680A4895
:100A5C0013465B0013449B00034404331960FB8969
:100A6C000133FB81FB89032BC1D900BF00BF1437B5
:100A7C00BD4680BC704700BF6C00002080B582B0C2
:100A8C0000AF314B1B78002B51D12F4B1B7B1946E0
:100A9C000020FFF7ABFD2C4B5B7B19460120FFF7C9
:100AAC00A5FD0023FB713EE0FB79274A043332F8A5
:100ABC001330002B33D1FB79234A13441B7B022BBD
:100ACC0020D0022B2CDC002B02D0012B0DD027E0E8
:100ADC00FB791D4A134402221A73FB791A4AD188F6
:100AEC00194A043322F813101AE0FB79164A1344FE
:100AFC0000221A73FB79144A5188134A043322F8E2
:100B0C0013100DE0FB79104A134401221A73FB7980
:100B1C000D4A91880C4A043322F8131000E000BFF0
:100B2C00FB790133FB71FB79012BBDD908E0074B35
:100B3C005B69002B04D1FFF7A5FD044B01225A6120
:100B4C0000BF0837BD4680BD440100206C0000206A
:100B5C0080B500AFFFF756FE2E4B1B78032B53D8F6
:100B6C0001A252F823F000BF850B0008BF0B000850
:100B7C00DB0B0008F70B0008274BDB6A002B42D17C
:100B8C00244B1B89013B9AB2224B1A81214B5B8966
:100B9C00013B9AB21F4B5A811E4B1B8919460020F0
:100BAC00FFF7FAFD1B4B5B8919460120FFF7F4FD9B
:100BBC0029E0184B1B789BB219460020FFF7ECFD7F
:100BCC00144B5B8819460120FFF7E6FD1CE0114B26
:100BDC001B789BB219460020FFF7DEFD0D4B9B885E
:100BEC0019460120FFF7D8FD0EE00A4B1B789BB28B
:100BFC0019460020FFF7D0FD064BDB881946012073
:100C0C00FFF7CAFD00E000BF034B0122DA6200BF10
:100C1C0080BD00BF440100206C00002080B584B072
:100C2C0000AF0346FB710023FB73FB799BB21846A4
:100C3C00FFF7FEFB0346002B1CD0FB799BB218463A
:100C4C00FFF716FCFB79022B06D0022B14DC002BD1
:100C5C0002D0012B0BD00FE0FB799BB21846FFF7AB
:100C6C00C7FB0346002B09D10123FB7306E00123CC
:100C7C00FB7304E000BF02E000BF00E000BFFB7BA1
:100C8C0018461037BD4680BD80B582B000AF114B01
:100C9C009B68002B04D1FFF7A9FA0E4B01229A6036
:100CAC0002237B600EE07B68DBB21846FFF7B6FFD1
:100CBC000346012B03D17B68DAB2074B1A707B68B1
:100CCC00013B7B607B68002BEDDA00BF00BF08376F
:100CDC00BD4680BD6C0000202C00002080B582B089
:100CEC0000AFFFF741FEFFF741FCFFF7E1FCFFF718
:100CFC0027FA174B00221A70154B00221A73144B4B
:100D0C0002225A73124B05225A80114B02229A80EE
:100D1C000F4B0322DA800023FB7110E0FB790C4AA5
:100D2C0013441B7BFA790A495B000B445888084929
:100D3C00131D024621F81320FB790133FB71FB795B
:100D4C00012BEBD900BF00BF0837BD4680BD00BFEB
:100D5C004401002080B500AFFFF790FEFFF7F8FECE
:100D6C00FFF792FF3B4B1B78022B59D0022B66DC12
:100D7C00002B02D0012B38D061E0374B1B780133AC
:100D8C005A4203F0030302F0030258BF5342DAB293
:100D9C00314B1A70314B64221A802F4B1B78002B6D
:100DAC000CD12D4B1B8919460020FFF7F5FC2A4B63
:100DBC005B8919460120FFF7EFFC45E0264B1B78B9
:100DCC00013B254A5B0013445A88244B1A80224B62
:100DDC001B789BB219460020FFF7DEFC1F4B1B88CB
:100DEC0019460120FFF7D8FC2EE01B4B1B78002B7B
:100DFC0027D01A4B1B880133194A82FB031251115D
:100E0C00DA178A1A642101FB02F29A1A92B2134B76
:100E1C001A80124B1B8819460120FFF7BDFC10E00D
:100E2C000D4B1B78002B0ED00B4B1B78013B0B4A48
:100E3C001188094A5B0013440A465A8003E000BF3C
:100E4C0002E000BF00E000BF024B03221A7000BF9B
:100E5C0080BD00BF2C000020440100202E0000208B
:100E6C001F85EB5180B500AF00F0B4F900F00EF81F
:100E7C0000F094F800F046F8034801F0F1F8FFF7A1
:100E8C002DFFFFF767FFFCE75401002080B590B001
:100E9C0000AF07F1180328220021184601F09CFC32
:100EAC003B1D00221A605A609A60DA601A610223B4
:100EBC00BB610123BB621023FB6200237B6307F140
:100ECC001803184600F0A0FC0346002B01D000F0DC
:100EDC00C7F80F237B600023BB600023FB6000235B
:100EEC003B6100237B613B1D0021184600F00CFF89
:100EFC000346002B01D000F0B3F800BF4037BD46CD
:100F0C0080BD000080B586B000AF07F10803002259
:100F1C001A605A609A60DA603B4600221A605A6086
:100F2C001D4B4FF080421A601B4B41F63F725A60CA
:100F3C00194B00229A60184B0922DA60164B0022DA
:100F4C001A61154B00229A61134801F039F80346D7
:100F5C00002B01D000F084F84FF48053BB6007F1F4
:100F6C00080319460C4801F0CFF90346002B01D0B9
:100F7C0000F076F800233B6000237B603B4619466B
:100F8C00054801F09BFB0346002B01D000F068F8EC
:100F9C0000BF1837BD4680BD5401002080B586B017
:100FAC0000AF07F1080300221A605A609A60DA60F9
:100FBC00284B9B69274A43F004039361254B9B699B
:100FCC0003F004037B607B68224B9B69214A43F04E
:100FDC00080393611F4B9B6903F008033B603B685C
:100FEC0000227E211C4800F0F6FB002240F2FF712B
:100FFC001A4800F0F0FB7E23BB600123FB6000234A
:10100C003B6102237B6107F108031946124800F08B
:10101C0051FA40F2FF73BB600123FB6000233B617C
:10102C0002237B6107F1080319460C4800F042FAD1
:10103C004FF46053BB600023FB6001233B6107F15D
:10104C0008031946054800F035FA00BF1837BD46AD
:10105C0080BD00BF0010024000080140000C0140A0
:10106C0080B400AF72B600BFFEE7000080B485B05C
:10107C0000AF154B9B69144A43F001039361124B6B
:10108C009B6903F00103BB60BB680F4BDB690E4A25
:10109C0043F08053D3610C4BDB6903F080537B60CE
:1010AC007B680A4B5B68FB60FB6823F0E063FB60CA
:1010BC00FB6843F00073FB60044AFB68536000BF9D
:1010CC001437BD4680BC7047001002400000014040
:1010DC0080B584B000AF78607B681B68B3F1804F3B
:1010EC0013D10C4BDB690B4A43F00103D361094B61
:1010FC00DB6903F00103FB60FB68002200211C206C
:10110C0000F0A1F91C2000F0BAF900BF1037BD4661
:10111C0080BD00BF0010024080B400AFFEE780B479
:10112C0000AFFEE780B400AFFEE780B400AFFEE78F
:10113C0080B400AFFEE780B400AF00BFBD4680BCFA
:10114C00704780B400AF00BFBD4680BC704780B410
:10115C0000AF00BFBD4680BC704780B500AF00F04B
:10116C007FF800BF80BD000080B500AF024800F0E2
:10117C00C3FF00BF80BD00BF5401002080B400AF8E
:10118C0000BFBD4680BC7047FFF7F8FF0B480C4909
:10119C000C4A002302E0D458C4500433C4188C42C7
:1011AC00F9D3094A094C002301E013600432A2422E
:1011BC00FBD301F0EDFAFFF755FE7047000000205D
:1011CC003C000020A02800083C000020A0010020CA
:1011DC00FEE7000080B500AF084B1B68074A43F0E0
:1011EC0010031360032000F023F90F2000F008F81F
:1011FC00FFF73CFF0023184680BD00BF00200240D3
:10120C0080B582B000AF7860124B1A68124B1B7815
:10121C0019464FF47A73B3FBF1F3B2FBF3F31846B0
:10122C0000F03BF90346002B01D001230EE07B6854
:10123C000F2B0AD8002279684FF0FF3000F003F929
:10124C00064A7B681360002300E001231846083728
:10125C00BD4680BD30000020380000203400002046
:10126C0080B400AF054B1B781A46054B1B68134422
:10127C00034A136000BFBD4680BC70473800002095
:10128C009C01002080B400AF024B1B681846BD4681
:10129C0080BC70479C01002080B485B000AF7860A2
:1012AC007B6803F00703FB600C4BDB68BB60BA6820
:1012BC004FF6FF031340BB60FB681A02BB68134375
:1012CC0043F0BF6343F40033BB60044ABB68D36094
:1012DC0000BF1437BD4680BC704700BF00ED00E076
:1012EC0080B400AF044BDB681B0A03F007031846FD
:1012FC00BD4680BC704700BF00ED00E080B483B0F9
:10130C0000AF0346FB7197F90730002B0BDBFB7921
:10131C0003F01F02064997F907305B09012000FA18
:10132C0002F241F8232000BF0C37BD4680BC704749
:10133C0000E100E080B483B000AF03463960FB717C
:10134C0097F90730002B0ADB3B68DAB20C4997F9A6
:10135C0007301201D2B20B4483F800230AE03B6839
:10136C00DAB20849FB7903F00F03043B1201D2B245
:10137C000B441A7600BF0C37BD4680BC704700BFCB
:10138C0000E100E000ED00E080B489B000AFF8604F
:10139C00B9607A60FB6803F00703FB61FB69C3F17A
:1013AC000703042B28BF0423BB61FB690433062B02
:1013BC0002D9FB69033B00E000237B614FF0FF3255
:1013CC00BB6902FA03F3DA43BB681A407B699A40A3
:1013DC004FF0FF317B6901FA03F3D9437B680B4073
:1013EC00134318462437BD4680BC704780B582B085
:1013FC0000AF78607B68013BB3F1807F01D30123A0
:10140C000FE00A4A7B68013B53600F214FF0FF301D
:10141C00FFF790FF054B00229A60044B07221A60DD
:10142C00002318460837BD4680BD00BF10E000E021
:10143C0080B582B000AF78607868FFF72DFF00BFF1
:10144C000837BD4680BD80B586B000AF0346B96095
:10145C007A60FB7300237B61FFF742FF78617A6847
:10146C00B9687869FFF790FF024697F90F3011467B
:10147C001846FFF75FFF00BF1837BD4680BD80B52B
:10148C0082B000AF0346FB7197F907301846FFF79F
:10149C0035FF00BF0837BD4680BD80B582B000AFB8
:1014AC0078607868FFF7A2FF034618460837BD46F8
:1014BC0080BD000080B48BB000AF78603960002331
:1014CC007B6200233B6248E101227B6A02FA03F350
:1014DC00FB613B681B68FA691340BB61BA69FB6925
:1014EC009A4240F037813B685B68A34A93425ED0D6
:1014FC00A14A934275D8A14A934258D09F4A93422D
:10150C006FD89F4A934252D09D4A934269D89D4AC4
:10151C0093424CD09B4A934263D89B4A934246D009
:10152C00994A93425DD8122B2AD8122B59D801A272
:10153C0052F823F0BB15000895150008A7150008F4
:10154C00E9150008EF150008EF150008EF15000865
:10155C00EF150008EF150008EF150008EF1500084F
:10156C00EF150008EF150008EF150008EF1500083F
:10157C00EF150008EF1500089D150008B1150008BF
:10158C00824A934213D02CE03B68DB683B6229E033
:10159C003B68DB6804333B6224E03B68DB68083360
:1015AC003B621FE03B68DB680C333B621AE03B6834
:1015BC009B68002B02D104233B6213E03B689B68C1
:1015CC00012B05D108233B627B68FA691A6109E09B
:1015DC0008233B627B68FA695A6103E000233B6293
:1015EC0000E000BFBB69FF2B01D87B6801E07B6882
:1015FC0004337B61BB69FF2B02D87B6A9B0002E042
:10160C007B6A083B9B003B617B691A680F213B6935
:10161C0001FA03F3DB431A40396A3B6901FA03F31D
:10162C001A437B691A603B685B6803F08053002B9C
:10163C0000F09080564B9B69554A43F0010393612F
:10164C00534B9B6903F00103BB60BB68514A7B6A37
:10165C009B08023352F82330FB607B6A03F00303D0
:10166C009B000F2202FA03F3DB43FA681340FB6082
:10167C007B68494A93420DD07B68484A934207D015
:10168C007B68474A934201D1022304E0032302E022
:10169C00012300E000237A6A02F0030292009340D7
:1016AC00FA681343FB603B497B6A9B080233FA6878
:1016BC0041F823203B685B6803F48013002B06D0B1
:1016CC00384B9A683749BB6913438B6006E0354B3E
:1016DC009A68BB69DB43334913408B603B685B689A
:1016EC0003F40013002B06D02E4BDA682D49BB698E
:1016FC001343CB6006E02B4BDA68BB69DB4329490B
:10170C001340CB603B685B6803F40033002B06D0BE
:10171C00244B5A682349BB6913434B6006E0214BA9
:10172C005A68BB69DB431F4913404B603B685B68DD
:10173C0003F48033002B06D01A4B1A681949BB6985
:10174C0013430B6006E0174B1A68BB69DB43154962
:10175C0013400B607B6A01337B623B681A687B6ABF
:10176C0022FA03F3002B7FF4AFAE00BF00BF2C377F
:10177C00BD4680BC704700BF000032100000311025
:10178C0000002210000021100000121000001110A7
:10179C00001002400000014000080140000C014014
:1017AC00001001400004014080B485B000AF7860A7
:1017BC000B467B807B689A687B881340002B02D099
:1017CC000123FB7301E00023FB73FB7B18461437EA
:1017DC00BD4680BC704780B483B000AF78600B46C8
:1017EC007B8013467B707B78002B03D07A887B68D8
:1017FC001A6103E07B881A047B681A6100BF0C37FE
:10180C00BD4680BC7047000080B586B000AF7860E4
:10181C007B68002B01D101236CE27B681B6803F011
:10182C000103002B00F08780924B5B6803F00C03E4
:10183C00042B0CD08F4B5B6803F00C03082B12D1DC
:10184C008C4B5B6803F48033B3F5803F0BD1894B31
:10185C001B6803F40033002B6CD07B685B68002B97
:10186C0068D1012346E27B685B68B3F5803F06D103
:10187C00804B1B687F4A43F4803313602EE07B68F7
:10188C005B68002B0CD17B4B1B687A4A23F48033AA
:10189C001360784B1B68774A23F4802313601DE098
:1018AC007B685B68B3F5A02F0CD1724B1B68714A37
:1018BC0043F4802313606F4B1B686E4A43F48033F0
:1018CC0013600BE06B4B1B686A4A23F48033136084
:1018DC00684B1B68674A23F4802313607B685B6842
:1018EC00002B13D0FFF7CEFC386108E0FFF7CAFCE1
:1018FC0002463B69D31A642B01D90323FAE15D4BF1
:10190C001B6803F40033002BF0D014E0FFF7BAFC93
:10191C00386108E0FFF7B6FC02463B69D31A642B2A
:10192C0001D90323E6E1534B1B6803F40033002B6E
:10193C00F0D100E000BF7B681B6803F00203002BB2
:10194C0063D04C4B5B6803F00C03002B0BD0494B62
:10195C005B6803F00C03082B1CD1464B5B6803F44B
:10196C008033002B16D1434B1B6803F00203002B72
:10197C0005D07B681B69012B01D00123BAE13D4BDB
:10198C001B6823F0F8027B685B69DB003949134361
:10199C000B603AE07B681B69002B20D0364B012290
:1019AC001A60FFF76FFC386108E0FFF76BFC02462A
:1019BC003B69D31A022B01D903239BE12D4B1B68E6
:1019CC0003F00203002BF0D02A4B1B6823F0F80223
:1019DC007B685B69DB00274913430B6015E0264BE2
:1019EC0000221A60FFF74EFC386108E0FFF74AFC52
:1019FC0002463B69D31A022B01D903237AE11D4B12
:101A0C001B6803F00203002BF0D17B681B6803F00A
:101A1C000803002B3AD07B689B69002B19D0174B1D
:101A2C0001221A60FFF72EFC386108E0FFF72AFC50
:101A3C0002463B69D31A022B01D903235AE10D4B01
:101A4C005B6A03F00203002BF0D0012000F09AFA3D
:101A5C001CE00A4B00221A60FFF714FC38610FE0FF
:101A6C00FFF710FC02463B69D31A022B08D903235B
:101A7C0040E100BF0010024000004242800442429C
:101A8C009E4B5B6A03F00203002BE9D17B681B6859
:101A9C0003F00403002B00F0A6800023FB75974B8A
:101AAC00DB6903F08053002B0DD1944BDB69934A17
:101ABC0043F08053D361914BDB6903F08053BB60DF
:101ACC00BB680123FB758E4B1B6803F48073002BE2
:101ADC0018D18B4B1B688A4A43F480731360FFF751
:101AEC00D1FB386108E0FFF7CDFB02463B69D31A06
:101AFC00642B01D90323FDE0814B1B6803F4807335
:101B0C00002BF0D07B68DB68012B06D17B4B1B6A6A
:101B1C007A4A43F0010313622DE07B68DB68002BEB
:101B2C000CD1764B1B6A754A23F001031362734B7D
:101B3C001B6A724A23F0040313621CE07B68DB68A7
:101B4C00052B0CD16D4B1B6A6C4A43F004031362DA
:101B5C006A4B1B6A694A43F0010313620BE0674B43
:101B6C001B6A664A23F001031362644B1B6A634AC7
:101B7C0023F0040313627B68DB68002B15D0FFF79E
:101B8C0081FB38610AE0FFF77DFB02463B69D31A03
:101B9C0041F28832934201D90323ABE0574B1B6AC5
:101BAC0003F00203002BEED014E0FFF76BFB38615F
:101BBC000AE0FFF767FB02463B69D31A41F2883211
:101BCC00934201D9032395E04C4B1B6A03F00203AB
:101BDC00002BEED1FB7D012B05D1484BDB69474A2D
:101BEC0023F08053D3617B68DB69002B00F081808C
:101BFC00424B5B6803F00C03082B61D07B68DB69FC
:101C0C00022B46D13F4B00221A60FFF73BFB386199
:101C1C0008E0FFF737FB02463B69D31A022B01D9C8
:101C2C00032367E0354B1B6803F00073002BF0D1E6
:101C3C007B681B6AB3F5803F08D1304B5B6823F49B
:101C4C0000327B689B682D4913434B602B4B5B68C0
:101C5C0023F474127B68196A7B685B6A0B4327490F
:101C6C0013434B60274B01221A60FFF70BFB3861C3
:101C7C0008E0FFF707FB02463B69D31A022B01D998
:101C8C00032337E01D4B1B6803F00073002BF0D0CF
:101C9C002FE01C4B00221A60FFF7F4FA386108E0C1
:101CAC00FFF7F0FA02463B69D31A022B01D9032342
:101CBC0020E0124B1B6803F00073002BF0D118E0EE
:101CCC007B68DB69012B01D1012313E00B4B5B68B3
:101CDC00FB60FB6803F480327B681B6A9A4206D176
:101CEC00FB6803F470127B685B6A9A4201D0012393
:101CFC0000E0002318461837BD4680BD0010024096
:101D0C00007000406000424280B584B000AF786043
:101D1C0039607B68002B01D10123D0E06A4B1B6832
:101D2C0003F007033A689A4210D9674B1B6823F0FB
:101D3C00070265493B6813430B60634B1B6803F058
:101D4C0007033A689A4201D00123B8E07B681B680C
:101D5C0003F00203002B20D07B681B6803F0040304
:101D6C00002B05D0594B5B68584A43F4E063536031
:101D7C007B681B6803F00803002B05D0534B5B6892
:101D8C00524A43F460535360504B5B6823F0F002AB
:101D9C007B689B684D4913434B607B681B6803F061
:101DAC000103002B40D07B685B68012B07D1474BAC
:101DBC001B6803F40033002B15D101237FE07B68F3
:101DCC005B68022B07D1414B1B6803F00073002B9F
:101DDC0009D1012373E03D4B1B6803F00203002B78
:101DEC0001D101236BE0394B5B6823F003027B6864
:101DFC005B68364913434B60FFF744FAF8600AE01E
:101E0C00FFF740FA0246FB68D31A41F2883293423C
:101E1C0001D9032353E02D4B5B6803F00C027B6864
:101E2C005B689B009A42EBD1274B1B6803F00703BE
:101E3C003A689A4210D2244B1B6823F007022249BD
:101E4C003B6813430B60204B1B6803F007033A6895
:101E5C009A4201D0012332E07B681B6803F0040333
:101E6C00002B08D0194B5B6823F4E0627B68DB68BD
:101E7C00164913434B607B681B6803F00803002B67
:101E8C0009D0124B5B6823F460527B681B69DB0042
:101E9C000E4913434B6000F021F802460B4B5B6874
:101EAC001B0903F00F030A49CB5C22FA03F3094A1E
:101EBC001360094B1B681846FFF7A2F9002318465C
:101ECC001037BD4680BD00BF00200240001002400C
:101EDC0074280008300000203400002080B487B043
:101EEC0000AF0023FB600023BB6000237B61002359
:101EFC007B6000233B611E4B5B68FB60FB6803F05F
:101F0C000C03042B02D0082B03D027E0194B3B61A8
:101F1C0027E0FB689B0C03F00F03174AD35C7B6034
:101F2C00FB6803F48033002B10D0114B5B685B0C07
:101F3C0003F00103114AD35CBB607B680D4A02FBC2
:101F4C0003F2BB68B2FBF3F37B6104E07B680C4AE1
:101F5C0002FB03F37B617B693B6102E0054B3B6158
:101F6C0000BF3B6918461C37BD4680BC704700BF9C
:101F7C000010024000127A008428000894280008FF
:101F8C0000093D0080B485B000AF78600A4B1B6837
:101F9C000A4AA2FB03235B0A7A6802FB03F3FB6089
:101FAC0000BFFB685A1EFA60002BF9D100BF00BFBE
:101FBC001437BD4680BC704730000020D34D6210F2
:101FCC0080B582B000AF78607B68002B01D1012313
:101FDC0041E07B6893F83D30DBB2002B06D17B6887
:101FEC00002283F83C207868FFF772F87B680222A5
:101FFC0083F83D207B681A687B68043319461046C9
:10200C0000F06EFA7B68012283F846207B6801227F
:10201C0083F83E207B68012283F83F207B680122F5
:10202C0083F840207B68012283F841207B680122E1
:10203C0083F842207B68012283F843207B680122CD
:10204C0083F844207B68012283F845207B680122B9
:10205C0083F83D20002318460837BD4680BD00009C
:10206C0080B485B000AF78607B6893F83D30DBB20C
:10207C00012B01D0012335E07B68022283F83D203F
:10208C007B681B68DA687B681B6842F00102DA60C7
:10209C007B681B68164A934209D07B681B68B3F1B6
:1020AC00804F04D07B681B68124A934211D17B6825
:1020BC001B689B6803F00703FB60FB68062B10D0C2
:1020CC007B681B681A687B681B6842F001021A6007
:1020DC0007E07B681B681A687B681B6842F001028A
:1020EC001A60002318461437BD4680BC704700BFE9
:1020FC00002C01400004004080B582B000AF786035
:10210C007B681B681B6903F00203022B22D17B68DE
:10211C001B68DB6803F00203022B1BD17B681B6876
:10212C006FF002021A617B6801221A777B681B68C8
:10213C009B6903F00303002B03D0786800F0B4F91B
:10214C0005E0786800F0A7F9786800F0B6F97B68CC
:10215C0000221A777B681B681B6903F00403042BAD
:10216C0022D17B681B68DB6803F00403042B1BD1B2
:10217C007B681B686FF004021A617B6802221A7775
:10218C007B681B689B6903F44073002B03D0786851
:10219C0000F08AF905E0786800F07DF9786800F0C5
:1021AC008CF97B6800221A777B681B681B6903F02B
:1021BC000803082B22D17B681B68DB6803F008033B
:1021CC00082B1BD17B681B686FF008021A617B68B7
:1021DC0004221A777B681B68DB6903F00303002B6E
:1021EC0003D0786800F060F905E0786800F053F9E6
:1021FC00786800F062F97B6800221A777B681B68AC
:10220C001B6903F01003102B22D17B681B68DB6861
:10221C0003F01003102B1BD17B681B686FF01002AE
:10222C001A617B6808221A777B681B68DB6903F4E8
:10223C004073002B03D0786800F036F905E078681D
:10224C0000F029F9786800F038F97B6800221A77D9
:10225C007B681B681B6903F00103012B0ED17B68A3
:10226C001B68DB6803F00103012B07D17B681B683B
:10227C006FF001021A617868FEF7B2FB7B681B688D
:10228C001B6903F08003802B0ED17B681B68DB6815
:10229C0003F08003802B07D17B681B686FF08002F2
:1022AC001A61786800F06BFA7B681B681B6903F095
:1022BC004003402B0ED17B681B68DB6803F04003A6
:1022CC00402B07D17B681B686FF040021A6178685D
:1022DC0000F0FCF87B681B681B6903F02003202BC3
:1022EC000ED17B681B68DB6803F02003202B07D121
:1022FC007B681B686FF020021A61786800F036FA70
:10230C0000BF0837BD4680BD80B584B000AF786093
:10231C0039600023FB737B6893F83C30012B01D1AF
:10232C000223B4E07B68012283F83C207B68022204
:10233C0083F83D207B681B689B68BB60BB6823F0FF
:10234C007703BB60BB6823F47F43BB607B681B686F
:10235C00BA689A603B681B68B3F5005F3ED0B3F572
:10236C00005F00F28780B3F5805F00F08680B3F5E4
:10237C00805F7FD8702B1AD0702B7BD8602B50D0FD
:10238C00602B77D8502B3CD0502B73D8402B58D087
:10239C00402B6FD8302B64D0302B6BD8202B60D0D7
:1023AC00202B67D8002B5CD0102B5AD062E07B68B6
:1023BC0018683B6899683B685A683B68DB6800F0B2
:1023CC005EF97B681B689B68BB60BB6843F0770356
:1023DC00BB607B681B68BA689A604FE07B681868C2
:1023EC003B6899683B685A683B68DB6800F047F9C2
:1023FC007B681B689A687B681B6842F480429A6011
:10240C003CE07B6818683B6859683B68DB681A4697
:10241C0000F0BEF87B681B685021184600F015F9D7
:10242C002CE07B6818683B6859683B68DB681A4687
:10243C0000F0DCF87B681B686021184600F005F999
:10244C001CE07B6818683B6859683B68DB681A4677
:10245C0000F09EF87B681B684021184600F0F5F8E8
:10246C000CE07B681A683B681B681946104600F044
:10247C00ECF803E00123FB7300E000BF7B68012252
:10248C0083F83D207B68002283F83C20FB7B1846B8
:10249C001037BD4680BD80B483B000AF786000BFFC
:1024AC000C37BD4680BC704780B483B000AF7860F9
:1024BC0000BF0C37BD4680BC704780B483B000AF02
:1024CC00786000BF0C37BD4680BC704780B483B0C9
:1024DC0000AF786000BF0C37BD4680BC7047000071
:1024EC0080B485B000AF786039607B681B68FB6096
:1024FC007B68254A934207D07B68B3F1804F03D0A9
:10250C007B68224A934208D1FB6823F07003FB607E
:10251C003B685B68FA681343FB607B681A4A93421A
:10252C0007D07B68B3F1804F03D07B68174A934286
:10253C0008D1FB6823F44073FB603B68DB68FA68E6
:10254C001343FB60FB6823F080023B685B69134319
:10255C00FB607B68FA681A603B689A687B68DA6291
:10256C003B681A687B689A627B68074A934203D17E
:10257C003B681A697B681A637B6801225A6100BF49
:10258C001437BD4680BC7047002C0140000400404D
:10259C0080B487B000AFF860B9607A60FB681B6AE2
:1025AC007B61FB681B6A23F00102FB681A62FB6803
:1025BC009B693B613B6923F0F0033B617B681B012A
:1025CC003A6913433B617B6923F00A037B617A69A7
:1025DC00BB6813437B61FB683A699A61FB687A6953
:1025EC001A6200BF1C37BD4680BC704780B487B0F0
:1025FC0000AFF860B9607A60FB681B6A7B61FB68AE
:10260C001B6A23F01002FB681A62FB689B693B6132
:10261C003B6923F470433B617B681B033A691343AA
:10262C003B617B6923F0A0037B61BB681B017A696A
:10263C0013437B61FB683A699A61FB687A691A6299
:10264C0000BF1C37BD4680BC704780B485B000AF5E
:10265C00786039607B689B68FB60FB6823F07003D3
:10266C00FB603A68FB68134343F00703FB607B682D
:10267C00FA689A6000BF1437BD4680BC704780B4BE
:10268C0087B000AFF860B9607A603B60FB689B680C
:10269C007B617B6923F47F437B613B681A027B6817
:1026AC001A43BB6813437A6913437B61FB687A69ED
:1026BC009A6000BF1C37BD4680BC704780B485B0A3
:1026CC0000AF786039607B6893F83C30012B01D106
:1026DC00022341E07B68012283F83C207B680222C4
:1026EC0083F83D207B681B685B68FB607B681B681C
:1026FC009B68BB60FB6823F07003FB603B681B6846
:10270C00FA681343FB607B681B68FA685A607B6845
:10271C001B68144A934209D07B681B68B3F1804F45
:10272C0004D07B681B68104A93420CD1BB6823F021
:10273C008003BB603B685B68BA681343BB607B6813
:10274C001B68BA689A607B68012283F83D207B681D
:10275C00002283F83C20002318461437BD4680BC69
:10276C00704700BF002C01400004004080B483B0CF
:10277C0000AF786000BF0C37BD4680BC704780B49A
:10278C0083B000AF786000BF0C37BD4680BC70478B
:10279C0070B500260C4D0D4C641BA410A64209D13B
:1027AC0000F022F800260A4D0A4C641BA410A64225
:1027BC0005D170BD55F8043B98470136EEE755F846
:1027CC00043B98470136F2E798280008982800083F
:1027DC00982800089C28000803460244934200D124
:1027EC00704703F8011BF9E7F8B500BFF8BC08BC4B
:1027FC009E467047F8B500BFF8BC08BC9E467047B3
:10280C00000C014000080000000C0140001000000A
:10281C00000C0140002000000008014002000000F4
:10282C0000080140040000000008014008000000FE
:10283C0000080140100000000008014020000000CA
:10284C000008014040000000000C01408000000026
:10285C00000C014000010000000C014000020000CF
:10286C00000C01400004000000000000000000000B
:10287C0001020304060708090203040506070809F8
:0C288C000A0B0C0D0E0F101001020000D2
:042898003101000802
:04289C000D01000822
:1028A000010000004000000079000000240000004A
:1028B00030000000190000001200000002000000BB
:1028C0007800000000000000FF000000030064002A
:0C28D0000024F4001000000001000000D3
:040000050800119549
:00000001FF
